{
  "_format": "hh-sol-artifact-1",
  "contractName": "AgreementContract",
  "sourceName": "contracts/agreement.sol",
  "abi": [
    {
      "anonymous": false,
      "inputs": [
        {
          "indexed": true,
          "internalType": "address",
          "name": "previousOwner",
          "type": "address"
        },
        {
          "indexed": true,
          "internalType": "address",
          "name": "newOwner",
          "type": "address"
        }
      ],
      "name": "OwnershipTransferred",
      "type": "event"
    },
    {
      "inputs": [],
      "name": "arbitrator",
      "outputs": [
        {
          "internalType": "contract IArbitrator",
          "name": "",
          "type": "address"
        }
      ],
      "stateMutability": "view",
      "type": "function"
    },
    {
      "inputs": [
        {
          "internalType": "uint64",
          "name": "_agreementId",
          "type": "uint64"
        }
      ],
      "name": "checkpointBuyer",
      "outputs": [],
      "stateMutability": "nonpayable",
      "type": "function"
    },
    {
      "inputs": [
        {
          "internalType": "uint64",
          "name": "_agreementId",
          "type": "uint64"
        }
      ],
      "name": "checkpointProvider",
      "outputs": [],
      "stateMutability": "nonpayable",
      "type": "function"
    },
    {
      "inputs": [
        {
          "internalType": "uint64",
          "name": "_agreementId",
          "type": "uint64"
        }
      ],
      "name": "claim",
      "outputs": [],
      "stateMutability": "nonpayable",
      "type": "function"
    },
    {
      "inputs": [
        {
          "internalType": "uint256",
          "name": "_balance",
          "type": "uint256"
        }
      ],
      "name": "createAgreement",
      "outputs": [
        {
          "internalType": "uint64",
          "name": "",
          "type": "uint64"
        }
      ],
      "stateMutability": "nonpayable",
      "type": "function"
    },
    {
      "inputs": [
        {
          "internalType": "uint64",
          "name": "_agreementId",
          "type": "uint64"
        }
      ],
      "name": "getAgreement",
      "outputs": [
        {
          "components": [
            {
              "internalType": "address",
              "name": "provider",
              "type": "address"
            },
            {
              "internalType": "address",
              "name": "buyer",
              "type": "address"
            },
            {
              "internalType": "uint256",
              "name": "balance",
              "type": "uint256"
            },
            {
              "internalType": "uint8",
              "name": "checkpoint",
              "type": "uint8"
            },
            {
              "internalType": "bool",
              "name": "paid",
              "type": "bool"
            },
            {
              "internalType": "bool",
              "name": "advanceProvider",
              "type": "bool"
            },
            {
              "internalType": "bool",
              "name": "advanceBuyer",
              "type": "bool"
            },
            {
              "internalType": "bool",
              "name": "disputable",
              "type": "bool"
            },
            {
              "internalType": "enum AgreementContract.Status",
              "name": "status",
              "type": "uint8"
            },
            {
              "internalType": "enum AgreementContract.RulingOptions",
              "name": "ruling",
              "type": "uint8"
            },
            {
              "internalType": "string",
              "name": "cid",
              "type": "string"
            }
          ],
          "internalType": "struct AgreementContract.Agreement",
          "name": "",
          "type": "tuple"
        }
      ],
      "stateMutability": "view",
      "type": "function"
    },
    {
      "inputs": [
        {
          "internalType": "uint64",
          "name": "_agreementId",
          "type": "uint64"
        }
      ],
      "name": "getAgreementStatus",
      "outputs": [
        {
          "internalType": "uint8",
          "name": "",
          "type": "uint8"
        }
      ],
      "stateMutability": "view",
      "type": "function"
    },
    {
      "inputs": [],
      "name": "getAgreements",
      "outputs": [
        {
          "internalType": "uint64[]",
          "name": "",
          "type": "uint64[]"
        }
      ],
      "stateMutability": "view",
      "type": "function"
    },
    {
      "inputs": [
        {
          "internalType": "uint64",
          "name": "_agreementId",
          "type": "uint64"
        }
      ],
      "name": "getBalance",
      "outputs": [
        {
          "internalType": "uint256",
          "name": "",
          "type": "uint256"
        }
      ],
      "stateMutability": "view",
      "type": "function"
    },
    {
      "inputs": [],
      "name": "getContractBalance",
      "outputs": [
        {
          "internalType": "uint256",
          "name": "",
          "type": "uint256"
        }
      ],
      "stateMutability": "view",
      "type": "function"
    },
    {
      "inputs": [
        {
          "internalType": "uint64",
          "name": "_agreementId",
          "type": "uint64"
        }
      ],
      "name": "isPaid",
      "outputs": [
        {
          "internalType": "bool",
          "name": "",
          "type": "bool"
        }
      ],
      "stateMutability": "view",
      "type": "function"
    },
    {
      "inputs": [],
      "name": "owner",
      "outputs": [
        {
          "internalType": "address",
          "name": "",
          "type": "address"
        }
      ],
      "stateMutability": "view",
      "type": "function"
    },
    {
      "inputs": [
        {
          "internalType": "uint64",
          "name": "_agreementId",
          "type": "uint64"
        }
      ],
      "name": "reclaimFunds",
      "outputs": [],
      "stateMutability": "payable",
      "type": "function"
    },
    {
      "inputs": [],
      "name": "renounceOwnership",
      "outputs": [],
      "stateMutability": "nonpayable",
      "type": "function"
    },
    {
      "inputs": [
        {
          "internalType": "uint256",
          "name": "disputeID",
          "type": "uint256"
        },
        {
          "internalType": "uint256",
          "name": "_ruling",
          "type": "uint256"
        }
      ],
      "name": "rule",
      "outputs": [],
      "stateMutability": "nonpayable",
      "type": "function"
    },
    {
      "inputs": [
        {
          "internalType": "address",
          "name": "_arbitrator",
          "type": "address"
        }
      ],
      "name": "setArbitrator",
      "outputs": [],
      "stateMutability": "nonpayable",
      "type": "function"
    },
    {
      "inputs": [
        {
          "internalType": "uint64",
          "name": "_agreementId",
          "type": "uint64"
        }
      ],
      "name": "signAgreement",
      "outputs": [],
      "stateMutability": "payable",
      "type": "function"
    },
    {
      "inputs": [
        {
          "internalType": "address",
          "name": "newOwner",
          "type": "address"
        }
      ],
      "name": "transferOwnership",
      "outputs": [],
      "stateMutability": "nonpayable",
      "type": "function"
    }
  ],
  "bytecode": "0x608060405260008060146101000a81548167ffffffffffffffff021916908367ffffffffffffffff1602179055503480156200003a57600080fd5b506200005b6200004f6200006160201b60201c565b6200006960201b60201c565b6200012d565b600033905090565b60008060009054906101000a900473ffffffffffffffffffffffffffffffffffffffff169050816000806101000a81548173ffffffffffffffffffffffffffffffffffffffff021916908373ffffffffffffffffffffffffffffffffffffffff1602179055508173ffffffffffffffffffffffffffffffffffffffff168173ffffffffffffffffffffffffffffffffffffffff167f8be0079c531659141344cd1fd0a4f28419497f9722a3daafe3b4186f6b6457e060405160405180910390a35050565b612cf9806200013d6000396000f3fe6080604052600436106101095760003560e01c80638da5cb5b11610095578063cf7e924211610064578063cf7e924214610346578063e3be901214610371578063e8b56329146103ae578063f2e5f179146103ca578063f2fde38b1461040757610109565b80638da5cb5b146102a05780639a064836146102cb578063aab8ab0c146102f4578063b0eefabe1461031d57610109565b806346cbec4f116100dc57806346cbec4f146101ee5780636cc6cde11461020a5780636f9fb98a14610235578063715018a61461026057806384f01fc21461027757610109565b806310f7d7d61461010e5780633066ac261461014b578063311a6c5614610188578063341b9e5a146101b1575b600080fd5b34801561011a57600080fd5b5061013560048036038101906101309190611f0e565b610430565b6040516101429190611f5e565b60405180910390f35b34801561015757600080fd5b50610172600480360381019061016d9190611fa5565b6107f2565b60405161017f9190611fee565b60405180910390f35b34801561019457600080fd5b506101af60048036038101906101aa9190612009565b610833565b005b3480156101bd57600080fd5b506101d860048036038101906101d39190611fa5565b610a35565b6040516101e59190612058565b60405180910390f35b61020860048036038101906102039190611fa5565b610a69565b005b34801561021657600080fd5b5061021f610b4e565b60405161022c91906120f2565b60405180910390f35b34801561024157600080fd5b5061024a610b74565b6040516102579190612058565b60405180910390f35b34801561026c57600080fd5b50610275610b7c565b005b34801561028357600080fd5b5061029e60048036038101906102999190611fa5565b610b90565b005b3480156102ac57600080fd5b506102b5610d7c565b6040516102c2919061212e565b60405180910390f35b3480156102d757600080fd5b506102f260048036038101906102ed9190611fa5565b610da5565b005b34801561030057600080fd5b5061031b60048036038101906103169190611fa5565b610f91565b005b34801561032957600080fd5b50610344600480360381019061033f9190612175565b61127d565b005b34801561035257600080fd5b5061035b6112c9565b6040516103689190612260565b60405180910390f35b34801561037d57600080fd5b5061039860048036038101906103939190611fa5565b611392565b6040516103a5919061229d565b60405180910390f35b6103c860048036038101906103c39190611fa5565b6113d3565b005b3480156103d657600080fd5b506103f160048036038101906103ec9190611fa5565b6118d4565b6040516103fe9190612532565b60405180910390f35b34801561041357600080fd5b5061042e60048036038101906104299190612175565b611b5d565b005b6000806000601481819054906101000a900467ffffffffffffffff168092919061045990612583565b91906101000a81548167ffffffffffffffff021916908367ffffffffffffffff1602179055509050600360003373ffffffffffffffffffffffffffffffffffffffff1673ffffffffffffffffffffffffffffffffffffffff1681526020019081526020016000208190806001815401808255809150506001900390600052602060002090600491828204019190066008029091909190916101000a81548167ffffffffffffffff021916908367ffffffffffffffff16021790555033600260008367ffffffffffffffff1667ffffffffffffffff16815260200190815260200160002060000160006101000a81548173ffffffffffffffffffffffffffffffffffffffff021916908373ffffffffffffffffffffffffffffffffffffffff16021790555082600260008367ffffffffffffffff1667ffffffffffffffff168152602001908152602001600020600201819055506000600260008367ffffffffffffffff1667ffffffffffffffff16815260200190815260200160002060030160016101000a81548160ff02191690831515021790555060405180602001604052806000815250600260008367ffffffffffffffff1667ffffffffffffffff168152602001908152602001600020600401908161063591906127e4565b506000600260008367ffffffffffffffff1667ffffffffffffffff16815260200190815260200160002060030160036101000a81548160ff0219169083151502179055506000600260008367ffffffffffffffff1667ffffffffffffffff16815260200190815260200160002060030160026101000a81548160ff0219169083151502179055506001600260008367ffffffffffffffff1667ffffffffffffffff16815260200190815260200160002060030160046101000a81548160ff0219169083151502179055506000600260008367ffffffffffffffff1667ffffffffffffffff16815260200190815260200160002060030160006101000a81548160ff021916908360ff1602179055506000600260008367ffffffffffffffff1667ffffffffffffffff16815260200190815260200160002060030160056101000a81548160ff02191690836004811115610791576107906122f4565b5b02179055506000600260008367ffffffffffffffff1667ffffffffffffffff16815260200190815260200160002060030160066101000a81548160ff021916908360028111156107e4576107e36122f4565b5b021790555080915050919050565b6000600260008367ffffffffffffffff1667ffffffffffffffff16815260200190815260200160002060030160009054906101000a900460ff169050919050565b600160009054906101000a900473ffffffffffffffffffffffffffffffffffffffff1673ffffffffffffffffffffffffffffffffffffffff163373ffffffffffffffffffffffffffffffffffffffff161461088d57600080fd5b60006004600084815260200190815260200160002060009054906101000a900467ffffffffffffffff169050600260048111156108cd576108cc6122f4565b5b600260008367ffffffffffffffff1667ffffffffffffffff16815260200190815260200160002060030160059054906101000a900460ff166004811115610917576109166122f4565b5b1461092157600080fd5b60018203610981576001600260008367ffffffffffffffff1667ffffffffffffffff16815260200190815260200160002060030160066101000a81548160ff02191690836002811115610977576109766122f4565b5b02179055506109dd565b600282036109dc5760028060008367ffffffffffffffff1667ffffffffffffffff16815260200190815260200160002060030160066101000a81548160ff021916908360028111156109d6576109d56122f4565b5b02179055505b5b6003600260008367ffffffffffffffff1667ffffffffffffffff16815260200190815260200160002060030160056101000a81548160ff02191690836004811115610a2b57610a2a6122f4565b5b0217905550505050565b6000600260008367ffffffffffffffff1667ffffffffffffffff168152602001908152602001600020600201549050919050565b600260008267ffffffffffffffff1667ffffffffffffffff168152602001908152602001600020600201543414610a9f57600080fd5b33600260008367ffffffffffffffff1667ffffffffffffffff16815260200190815260200160002060010160006101000a81548173ffffffffffffffffffffffffffffffffffffffff021916908373ffffffffffffffffffffffffffffffffffffffff1602179055506001600260008367ffffffffffffffff1667ffffffffffffffff16815260200190815260200160002060030160016101000a81548160ff02191690831515021790555050565b600160009054906101000a900473ffffffffffffffffffffffffffffffffffffffff1681565b600047905090565b610b84611be0565b610b8e6000611c5e565b565b600260008267ffffffffffffffff1667ffffffffffffffff16815260200190815260200160002060000160009054906101000a900473ffffffffffffffffffffffffffffffffffffffff1673ffffffffffffffffffffffffffffffffffffffff163373ffffffffffffffffffffffffffffffffffffffff1614610c1257600080fd5b6001600260008367ffffffffffffffff1667ffffffffffffffff16815260200190815260200160002060030160026101000a81548160ff021916908315150217905550600260008267ffffffffffffffff1667ffffffffffffffff16815260200190815260200160002060030160039054906101000a900460ff1615610d7957600260008267ffffffffffffffff1667ffffffffffffffff168152602001908152602001600020600301600081819054906101000a900460ff1680929190610cd9906128b6565b91906101000a81548160ff021916908360ff160217905550506000600260008367ffffffffffffffff1667ffffffffffffffff16815260200190815260200160002060030160036101000a81548160ff0219169083151502179055506000600260008367ffffffffffffffff1667ffffffffffffffff16815260200190815260200160002060030160026101000a81548160ff0219169083151502179055505b50565b60008060009054906101000a900473ffffffffffffffffffffffffffffffffffffffff16905090565b600260008267ffffffffffffffff1667ffffffffffffffff16815260200190815260200160002060010160009054906101000a900473ffffffffffffffffffffffffffffffffffffffff1673ffffffffffffffffffffffffffffffffffffffff163373ffffffffffffffffffffffffffffffffffffffff1614610e2757600080fd5b6001600260008367ffffffffffffffff1667ffffffffffffffff16815260200190815260200160002060030160036101000a81548160ff021916908315150217905550600260008267ffffffffffffffff1667ffffffffffffffff16815260200190815260200160002060030160029054906101000a900460ff1615610f8e57600260008267ffffffffffffffff1667ffffffffffffffff168152602001908152602001600020600301600081819054906101000a900460ff1680929190610eee906128b6565b91906101000a81548160ff021916908360ff160217905550506000600260008367ffffffffffffffff1667ffffffffffffffff16815260200190815260200160002060030160036101000a81548160ff0219169083151502179055506000600260008367ffffffffffffffff1667ffffffffffffffff16815260200190815260200160002060030160026101000a81548160ff0219169083151502179055505b50565b6003600260008367ffffffffffffffff1667ffffffffffffffff16815260200190815260200160002060030160009054906101000a900460ff1660ff1614610fd857600080fd5b3373ffffffffffffffffffffffffffffffffffffffff16600260008367ffffffffffffffff1667ffffffffffffffff16815260200190815260200160002060000160009054906101000a900473ffffffffffffffffffffffffffffffffffffffff1673ffffffffffffffffffffffffffffffffffffffff161461105a57600080fd5b6000600481111561106e5761106d6122f4565b5b600260008367ffffffffffffffff1667ffffffffffffffff16815260200190815260200160002060030160059054906101000a900460ff1660048111156110b8576110b76122f4565b5b148061111f5750600360048111156110d3576110d26122f4565b5b600260008367ffffffffffffffff1667ffffffffffffffff16815260200190815260200160002060030160059054906101000a900460ff16600481111561111d5761111c6122f4565b5b145b61112857600080fd5b6003600481111561113c5761113b6122f4565b5b600260008367ffffffffffffffff1667ffffffffffffffff16815260200190815260200160002060030160059054906101000a900460ff166004811115611186576111856122f4565b5b036111f35760028081111561119e5761119d6122f4565b5b600260008367ffffffffffffffff1667ffffffffffffffff16815260200190815260200160002060030160069054906101000a900460ff1660028111156111e8576111e76122f4565b5b146111f257600080fd5b5b61122733600260008467ffffffffffffffff1667ffffffffffffffff16815260200190815260200160002060020154611d22565b6004600260008367ffffffffffffffff1667ffffffffffffffff16815260200190815260200160002060030160056101000a81548160ff02191690836004811115611275576112746122f4565b5b021790555050565b611285611be0565b80600160006101000a81548173ffffffffffffffffffffffffffffffffffffffff021916908373ffffffffffffffffffffffffffffffffffffffff16021790555050565b6060600360003373ffffffffffffffffffffffffffffffffffffffff1673ffffffffffffffffffffffffffffffffffffffff16815260200190815260200160002080548060200260200160405190810160405280929190818152602001828054801561138857602002820191906000526020600020906000905b82829054906101000a900467ffffffffffffffff1667ffffffffffffffff16815260200190600801906020826007010492830192600103820291508084116113435790505b5050505050905090565b6000600260008367ffffffffffffffff1667ffffffffffffffff16815260200190815260200160002060030160019054906101000a900460ff169050919050565b600260008267ffffffffffffffff1667ffffffffffffffff16815260200190815260200160002060010160009054906101000a900473ffffffffffffffffffffffffffffffffffffffff1673ffffffffffffffffffffffffffffffffffffffff163373ffffffffffffffffffffffffffffffffffffffff161461145557600080fd5b60006004811115611469576114686122f4565b5b600260008367ffffffffffffffff1667ffffffffffffffff16815260200190815260200160002060030160059054906101000a900460ff1660048111156114b3576114b26122f4565b5b148061151a5750600360048111156114ce576114cd6122f4565b5b600260008367ffffffffffffffff1667ffffffffffffffff16815260200190815260200160002060030160059054906101000a900460ff166004811115611518576115176122f4565b5b145b61152357600080fd5b6000600260008367ffffffffffffffff1667ffffffffffffffff16815260200190815260200160002060030160046101000a81548160ff0219169083151502179055506003600481111561157a576115796122f4565b5b600260008367ffffffffffffffff1667ffffffffffffffff16815260200190815260200160002060030160059054906101000a900460ff1660048111156115c4576115c36122f4565b5b036116bd57600160028111156115dd576115dc6122f4565b5b600260008367ffffffffffffffff1667ffffffffffffffff16815260200190815260200160002060030160069054906101000a900460ff166002811115611627576116266122f4565b5b1461163157600080fd5b61166533600260008467ffffffffffffffff1667ffffffffffffffff16815260200190815260200160002060020154611d22565b6004600260008367ffffffffffffffff1667ffffffffffffffff16815260200190815260200160002060030160056101000a81548160ff021916908360048111156116b3576116b26122f4565b5b02179055506118d1565b6000600160009054906101000a900473ffffffffffffffffffffffffffffffffffffffff1673ffffffffffffffffffffffffffffffffffffffff1663f7434ea96040518163ffffffff1660e01b815260040161171890612916565b602060405180830381865afa158015611735573d6000803e3d6000fd5b505050506040513d601f19601f82011682018060405250810190611759919061294b565b90508034101561179e576040517f08c379a0000000000000000000000000000000000000000000000000000000008152600401611795906129fb565b60405180910390fd5b6000600160009054906101000a900473ffffffffffffffffffffffffffffffffffffffff1673ffffffffffffffffffffffffffffffffffffffff1663c13517e13460026040518363ffffffff1660e01b81526004016117fd9190612a56565b60206040518083038185885af115801561181b573d6000803e3d6000fd5b50505050506040513d601f19601f82011682018060405250810190611840919061294b565b9050826004600083815260200190815260200160002060006101000a81548167ffffffffffffffff021916908367ffffffffffffffff16021790555060028060008567ffffffffffffffff1667ffffffffffffffff16815260200190815260200160002060030160056101000a81548160ff021916908360048111156118c9576118c86122f4565b5b021790555050505b50565b6118dc611e1e565b600260008367ffffffffffffffff1667ffffffffffffffff168152602001908152602001600020604051806101600160405290816000820160009054906101000a900473ffffffffffffffffffffffffffffffffffffffff1673ffffffffffffffffffffffffffffffffffffffff1673ffffffffffffffffffffffffffffffffffffffff1681526020016001820160009054906101000a900473ffffffffffffffffffffffffffffffffffffffff1673ffffffffffffffffffffffffffffffffffffffff1673ffffffffffffffffffffffffffffffffffffffff168152602001600282015481526020016003820160009054906101000a900460ff1660ff1660ff1681526020016003820160019054906101000a900460ff161515151581526020016003820160029054906101000a900460ff161515151581526020016003820160039054906101000a900460ff161515151581526020016003820160049054906101000a900460ff161515151581526020016003820160059054906101000a900460ff166004811115611a7357611a726122f4565b5b6004811115611a8557611a846122f4565b5b81526020016003820160069054906101000a900460ff166002811115611aae57611aad6122f4565b5b6002811115611ac057611abf6122f4565b5b8152602001600482018054611ad490612611565b80601f0160208091040260200160405190810160405280929190818152602001828054611b0090612611565b8015611b4d5780601f10611b2257610100808354040283529160200191611b4d565b820191906000526020600020905b815481529060010190602001808311611b3057829003601f168201915b5050505050815250509050919050565b611b65611be0565b600073ffffffffffffffffffffffffffffffffffffffff168173ffffffffffffffffffffffffffffffffffffffff1603611bd4576040517f08c379a0000000000000000000000000000000000000000000000000000000008152600401611bcb90612af6565b60405180910390fd5b611bdd81611c5e565b50565b611be8611e16565b73ffffffffffffffffffffffffffffffffffffffff16611c06610d7c565b73ffffffffffffffffffffffffffffffffffffffff1614611c5c576040517f08c379a0000000000000000000000000000000000000000000000000000000008152600401611c5390612b62565b60405180910390fd5b565b60008060009054906101000a900473ffffffffffffffffffffffffffffffffffffffff169050816000806101000a81548173ffffffffffffffffffffffffffffffffffffffff021916908373ffffffffffffffffffffffffffffffffffffffff1602179055508173ffffffffffffffffffffffffffffffffffffffff168173ffffffffffffffffffffffffffffffffffffffff167f8be0079c531659141344cd1fd0a4f28419497f9722a3daafe3b4186f6b6457e060405160405180910390a35050565b80471015611d65576040517f08c379a0000000000000000000000000000000000000000000000000000000008152600401611d5c90612bce565b60405180910390fd5b60008273ffffffffffffffffffffffffffffffffffffffff1682604051611d8b90612c1c565b60006040518083038185875af1925050503d8060008114611dc8576040519150601f19603f3d011682016040523d82523d6000602084013e611dcd565b606091505b5050905080611e11576040517f08c379a0000000000000000000000000000000000000000000000000000000008152600401611e0890612ca3565b60405180910390fd5b505050565b600033905090565b604051806101600160405280600073ffffffffffffffffffffffffffffffffffffffff168152602001600073ffffffffffffffffffffffffffffffffffffffff16815260200160008152602001600060ff16815260200160001515815260200160001515815260200160001515815260200160001515815260200160006004811115611ead57611eac6122f4565b5b815260200160006002811115611ec657611ec56122f4565b5b8152602001606081525090565b600080fd5b6000819050919050565b611eeb81611ed8565b8114611ef657600080fd5b50565b600081359050611f0881611ee2565b92915050565b600060208284031215611f2457611f23611ed3565b5b6000611f3284828501611ef9565b91505092915050565b600067ffffffffffffffff82169050919050565b611f5881611f3b565b82525050565b6000602082019050611f736000830184611f4f565b92915050565b611f8281611f3b565b8114611f8d57600080fd5b50565b600081359050611f9f81611f79565b92915050565b600060208284031215611fbb57611fba611ed3565b5b6000611fc984828501611f90565b91505092915050565b600060ff82169050919050565b611fe881611fd2565b82525050565b60006020820190506120036000830184611fdf565b92915050565b600080604083850312156120205761201f611ed3565b5b600061202e85828601611ef9565b925050602061203f85828601611ef9565b9150509250929050565b61205281611ed8565b82525050565b600060208201905061206d6000830184612049565b92915050565b600073ffffffffffffffffffffffffffffffffffffffff82169050919050565b6000819050919050565b60006120b86120b36120ae84612073565b612093565b612073565b9050919050565b60006120ca8261209d565b9050919050565b60006120dc826120bf565b9050919050565b6120ec816120d1565b82525050565b600060208201905061210760008301846120e3565b92915050565b600061211882612073565b9050919050565b6121288161210d565b82525050565b6000602082019050612143600083018461211f565b92915050565b6121528161210d565b811461215d57600080fd5b50565b60008135905061216f81612149565b92915050565b60006020828403121561218b5761218a611ed3565b5b600061219984828501612160565b91505092915050565b600081519050919050565b600082825260208201905092915050565b6000819050602082019050919050565b6121d781611f3b565b82525050565b60006121e983836121ce565b60208301905092915050565b6000602082019050919050565b600061220d826121a2565b61221781856121ad565b9350612222836121be565b8060005b8381101561225357815161223a88826121dd565b9750612245836121f5565b925050600181019050612226565b5085935050505092915050565b6000602082019050818103600083015261227a8184612202565b905092915050565b60008115159050919050565b61229781612282565b82525050565b60006020820190506122b2600083018461228e565b92915050565b6122c18161210d565b82525050565b6122d081611ed8565b82525050565b6122df81611fd2565b82525050565b6122ee81612282565b82525050565b7f4e487b7100000000000000000000000000000000000000000000000000000000600052602160045260246000fd5b60058110612334576123336122f4565b5b50565b600081905061234582612323565b919050565b600061235582612337565b9050919050565b6123658161234a565b82525050565b6003811061237c5761237b6122f4565b5b50565b600081905061238d8261236b565b919050565b600061239d8261237f565b9050919050565b6123ad81612392565b82525050565b600081519050919050565b600082825260208201905092915050565b60005b838110156123ed5780820151818401526020810190506123d2565b60008484015250505050565b6000601f19601f8301169050919050565b6000612415826123b3565b61241f81856123be565b935061242f8185602086016123cf565b612438816123f9565b840191505092915050565b60006101608301600083015161245c60008601826122b8565b50602083015161246f60208601826122b8565b50604083015161248260408601826122c7565b50606083015161249560608601826122d6565b5060808301516124a860808601826122e5565b5060a08301516124bb60a08601826122e5565b5060c08301516124ce60c08601826122e5565b5060e08301516124e160e08601826122e5565b506101008301516124f661010086018261235c565b5061012083015161250b6101208601826123a4565b50610140830151848203610140860152612525828261240a565b9150508091505092915050565b6000602082019050818103600083015261254c8184612443565b905092915050565b7f4e487b7100000000000000000000000000000000000000000000000000000000600052601160045260246000fd5b600061258e82611f3b565b915067ffffffffffffffff82036125a8576125a7612554565b5b600182019050919050565b7f4e487b7100000000000000000000000000000000000000000000000000000000600052604160045260246000fd5b7f4e487b7100000000000000000000000000000000000000000000000000000000600052602260045260246000fd5b6000600282049050600182168061262957607f821691505b60208210810361263c5761263b6125e2565b5b50919050565b60008190508160005260206000209050919050565b60006020601f8301049050919050565b600082821b905092915050565b6000600883026126a47fffffffffffffffffffffffffffffffffffffffffffffffffffffffffffffffff82612667565b6126ae8683612667565b95508019841693508086168417925050509392505050565b60006126e16126dc6126d784611ed8565b612093565b611ed8565b9050919050565b6000819050919050565b6126fb836126c6565b61270f612707826126e8565b848454612674565b825550505050565b600090565b612724612717565b61272f8184846126f2565b505050565b5b818110156127535761274860008261271c565b600181019050612735565b5050565b601f8211156127985761276981612642565b61277284612657565b81016020851015612781578190505b61279561278d85612657565b830182612734565b50505b505050565b600082821c905092915050565b60006127bb6000198460080261279d565b1980831691505092915050565b60006127d483836127aa565b9150826002028217905092915050565b6127ed826123b3565b67ffffffffffffffff811115612806576128056125b3565b5b6128108254612611565b61281b828285612757565b600060209050601f83116001811461284e576000841561283c578287015190505b61284685826127c8565b8655506128ae565b601f19841661285c86612642565b60005b828110156128845784890151825560018201915060208501945060208101905061285f565b868310156128a1578489015161289d601f8916826127aa565b8355505b6001600288020188555050505b505050505050565b60006128c182611fd2565b915060ff82036128d4576128d3612554565b5b600182019050919050565b600082825260208201905092915050565b50565b60006129006000836128df565b915061290b826128f0565b600082019050919050565b6000602082019050818103600083015261292f816128f3565b9050919050565b60008151905061294581611ee2565b92915050565b60006020828403121561296157612960611ed3565b5b600061296f84828501612936565b91505092915050565b600082825260208201905092915050565b7f4e6f7420656e6f7567682045544820746f20636f76657220617262697472617460008201527f696f6e20636f7374732e00000000000000000000000000000000000000000000602082015250565b60006129e5602a83612978565b91506129f082612989565b604082019050919050565b60006020820190508181036000830152612a14816129d8565b9050919050565b6000819050919050565b6000612a40612a3b612a3684612a1b565b612093565b611ed8565b9050919050565b612a5081612a25565b82525050565b6000604082019050612a6b6000830184612a47565b8181036020830152612a7c816128f3565b905092915050565b7f4f776e61626c653a206e6577206f776e657220697320746865207a65726f206160008201527f6464726573730000000000000000000000000000000000000000000000000000602082015250565b6000612ae0602683612978565b9150612aeb82612a84565b604082019050919050565b60006020820190508181036000830152612b0f81612ad3565b9050919050565b7f4f776e61626c653a2063616c6c6572206973206e6f7420746865206f776e6572600082015250565b6000612b4c602083612978565b9150612b5782612b16565b602082019050919050565b60006020820190508181036000830152612b7b81612b3f565b9050919050565b7f416464726573733a20696e73756666696369656e742062616c616e6365000000600082015250565b6000612bb8601d83612978565b9150612bc382612b82565b602082019050919050565b60006020820190508181036000830152612be781612bab565b9050919050565b600081905092915050565b6000612c06600083612bee565b9150612c11826128f0565b600082019050919050565b6000612c2782612bf9565b9150819050919050565b7f416464726573733a20756e61626c6520746f2073656e642076616c75652c207260008201527f6563697069656e74206d61792068617665207265766572746564000000000000602082015250565b6000612c8d603a83612978565b9150612c9882612c31565b604082019050919050565b60006020820190508181036000830152612cbc81612c80565b905091905056fea2646970667358221220177df3fbae042e9e5683d9e8676508a958785678c97417b9cf3bea3a866587d364736f6c63430008120033",
  "linkReferences": {},
  "deployedLinkReferences": {}
}